:020000040800F2
:10000000000500209D010008AF14000841130008FE
:10001000AD140008D50600087517000800000000A0
:100020000000000000000000000000009115000822
:10003000D706000800000000B1140008931500085E
:10004000B7010008B7010008B7010008B7010008B0
:10005000B7010008B7010008D9060008B701000879
:10006000B7010008B7010008B7010008B701000890
:10007000B7010008B7010008B7010008B701000880
:10008000B7010008B7010008B7010008B701000870
:10009000B7010008B7010008B7010008B701000860
:1000A000B7010008B7010008B7010008B701000850
:1000B000B7010008B7010008B7010008B701000840
:1000C000B7010008B7010008B7010008B701000830
:1000D000B7010008B7010008B7010008B701000820
:1000E000B7010008B7010008B7010008B701000810
:1000F000B7010008B7010008B7010008B701000800
:10010000B7010008B7010008B7010008B7010008EF
:10011000B7010008B7010008B7010008B7010008DF
:10012000B7010008B7010008B7010008B7010008CF
:10013000B7010008B7010008B7010008B7010008BF
:10014000B7010008B7010008B7010008B7010008AF
:10015000B7010008B7010008B7010008B70100089F
:10016000B7010008B7010008B7010008B70100088F
:10017000B7010008B7010008B7010008000000003F
:10018000B7010008B7010008DFF80CD000F090F8C4
:1001900000480047B91700080005002006488047BE
:1001A00006480047FEE7FEE7FEE7FEE7FEE7FEE75C
:1001B000FEE7FEE7FEE7FEE72116000889010008DA
:1001C0002DE9F05F0546002092469B46884606468C
:1001D000814640241BE0284641464746224600F01F
:1001E00057F853465A46C01A914110D31146184643
:1001F000224600F03EF82D1A67EB01084F462246D2
:100200000120002100F035F817EB00094E41201EB7
:10021000A4F10104DFDC484631462A464346BDE8E6
:10022000F09FD2B201E000F8012B491EFBD27047CB
:100230000022F6E710B513460A4604461946FFF7B2
:10024000F0FF204610BD30B50B46014600202022AD
:10025000012409E021FA02F59D4205D303FA02F5D3
:10026000491B04FA02F52844151EA2F10102F1DC33
:1002700030BD202A04DB203A00FA02F1002070474A
:100280009140C2F1200320FA03F3194390407047D4
:10029000202A04DB203A21FA02F00021704721FADB
:1002A00002F3D040C2F12002914008431946704742
:1002B000064C074D06E0E06840F0010394E80700B3
:1002C00098471034AC42F6D3FFF762FF141A0008C7
:1002D000341A0008B0B5524C1120A0474F4D64208D
:1002E000A84700F003F9E1480B2200F116010120B4
:1002F00000F0C0F90A20A8471020A0470A20A8470C
:100300000820A0470A202946BDE8B040084700BFA2
:100310001CB5EF4C10210022204600F0CBFAFF2044
:1003200009230090D14800F10C01C21C614800F083
:100330003DFE20461021012202B0BDE8104000F031
:10034000B9BA00BF2DE9F04100F0D0F8314D324F7D
:1003500010210122A5F540663046B84728464FF4E3
:10036000805100220024B84728464FF480410122E2
:10037000B847DFF8A8800A20C04730461021012284
:10038000B84728464FF480510022B84728464FF41A
:1003900080410022B8470A20C04728464FF48041D8
:1003A0000122B8470A20C04728464FF48041002266
:1003B000B8470120C04728464FF480410122B84782
:1003C0006420C047164D1120A8476420C04706206E
:1003D000A8474FF47A70C0471120A8476420C0474F
:1003E0000120C04707E02020002100F027F8044644
:1003F000C82000F075F9732CF5D10AA00AA100F00D
:100400008BFF9A480B2200F116010120BDE8F04154
:1004100000F030B900140240B5080008E1060008F9
:10042000B90400087430000041445331323932526B
:100430002064657465637465640000002DE9F04113
:100440000646A3480D46102100220027804600F0F2
:1004500031FA012000F044F90A4C3046A047002050
:10046000A047B00658BF2F463846A0470546012092
:1004700000F036F940461021012200F01BFA284610
:10048000BDE8F08189040008E0B58DF80700002080
:100490000DF107010DF1060201238DF806004FF65C
:1004A000FF700090034800F081FD9DF8060002B047
:1004B00080BD00BF64000020B0B5854C054610210A
:1004C0000022204600F0F6F9012000F009F9284644
:1004D000FFF7DAFF0546012000F002F9204610215F
:1004E000012200F0E7F92846B0BD00BFB0B55F4873
:1004F00073214FF0000C41755D4980F816C00B78F0
:1005000091F80CE04A7B8C7B857D2B43837580F8CA
:1005100017C00B7CC57D2B43C375CB7BC57D45EADE
:100520004303C375C37D43EAC403C375C37D43EA74
:100530000212C275C27D42EA4E12C275CA7AC37DEA
:1005400043EA8212C275C27D42F08002C275F02277
:10055000027680F819C0CA78437E134343768B78BD
:10056000457E45EA031545764D78447E44EAC51438
:10057000447680F81AC0847E22438276827E42EAE4
:1005800003128276827E42EAC512827680F81BC010
:100590008A7DC37E1A43C2764A7DC37E43EA420205
:1005A000C2760A7DC37E43EA8202C276CA7CC37EDB
:1005B00043EAC202C2768A7CC37E43EA0212C27652
:1005C0004A7CC37E43EA4212C276C022C27680F8D9
:1005D0001CC00A7F037F1A430277CA7E037F43EA67
:1005E000420202778A7E037F43EA820202774A7ED2
:1005F000037F43EAC20202770A7E037F43EA0212C4
:100600000277CA7D037F43EA4212027780F81DC059
:1006100080F81EC08A7A837F1A4382774A7A837F62
:1006200043EA820282770A7A837F43EA82128277E0
:10063000CA79837F43EAC21282770222827780F8E6
:100640001FC08A79C37F43EA4202C2774A79C37FD7
:1006500043EA8202C2770979C27F42EAC111C177B7
:100660000121C1770C2180F82010B0BD3800002096
:100670000C0000202DE9F0410746154814460E46AF
:10068000102100220025804600F014F9012000F01E
:1006900027F847F04000FFF7F7FE012000F020F8B0
:1006A000601EC0B2FFF7F0FE04E016F8010BFFF782
:1006B000EBFE0135012000F013F8E8B2A042F4D3BC
:1006C000404610210122BDE8F04100F0F3B800BF20
:1006D00000080240FEE77047012000F01FB8704795
:1006E000B0B5044600F0ECF805469748611C007868
:1006F00018BF044400F0E4F8401BA042FAD3B0BD98
:10070000012818BF704780B5FFF702FE024801219B
:100710000170BDE8804070475900002003490A6815
:10072000024214BF08607047FFF7EABF143C014063
:100730002DE9FC4F594A08274FF0010B4FF0030AEF
:100740004FF0000E4FF0000800269042544A08BFB8
:10075000072702444FEAB223072B38BF4FEAB227DC
:100760000097102E08BFBDE8FC8F0B680BFA06F54A
:100770002B4200F08D804B68122B14D80BFA03F437
:1007800014F0061F0FD087680AFA08F4A743CC6854
:1007900004FA08F427438760C3F300174468B7409E
:1007A000AC4327434760C4688A680AFA08F76FEACF
:1007B000070CBC4302FA08F22243C26043F0100265
:1007C000122A11D16FF003040EF01C020F2304EA69
:1007D000560493400444276A27EA03030F6907FA83
:1007E00002F21A4322624B68046803F0030202FA21
:1007F00008F204EA0C073A430260DA0048D5002206
:100800000EF00C070F240192284ABC4013461268D0
:1008100042F480421A601A68224B02F480429C46DD
:10082000019226F003021A44019B214B9946D358AA
:10083000A343009C04FA07F73B4342F80930DCF875
:1008400000204F6842EA0503FC0358BF22EA050373
:10085000BC03CCF80030DCF8042042EA050358BFA2
:1008600022EA0503FC02CCF80430DCF8082042EA56
:10087000050358BF22EA05030B4ABF02CCF8083033
:100880001446126842EA050358BF22EA05032360B2
:100890000EF1040E08F10208013662E7001C024066
:1008A0000000FEBF003C01400C3C014044380240C7
:1008B00008FCFFFF002A08BF09048161704700009F
:1008C00005480068704700BF1F48034900780A6860
:1008D00010440860704700BFFC00002080B50B4842
:1008E000016841F400710160016841F480610160B8
:1008F000016841F480710160032000F071F800206C
:1009000000F006F800F022F8002080BD003C024014
:1009100070B50D4E04464FF47A713078B1FBF0F0AB
:100920008C490968B1FBF0F000F02AFC01250F2C7E
:1009300008D838B94FF0FF3021460022002500F0DA
:1009400031F87460284670BD0400002082B0002099
:100950000C4901904A6842F480424A604A6802F4B5
:1009600080420192019A0090086840F0805008602F
:10097000086800F0805000900098052002B000F058
:100980002FB800BF40380240002808DB00F01F01EC
:100990000122400902FA01F1014A42F82010704791
:1009A00000E100E080B5144B1B68C3F3022CBCF1DE
:1009B000030E8CF007034FF0FF3C38BF4FF0000EE2
:1009C000042B28BF04230CFA03F399430CFA0EF30B
:1009D00001FA0EF19A431143BDE8804000F0CCBE0D
:1009E00005494FF6FF030A681A4060F30A220348DC
:1009F00010430860704700BF0CED00E00000FA05EE
:100A00002DE9F041002800F08780454B04468846D8
:100A1000D3F8000400F00F00884207D283F8008466
:100A2000D3F8000400F00F00404575D1206881071D
:100A300011D5410742BF996841F4E051996001071F
:100A400042BF996841F4604199609968A26821F0B9
:100A5000F00111439960C0072CD06068811E022903
:100A600003D21968890109D456E0012803D1196815
:100A7000890303D450E0196889074DD599681D464C
:100A800021F0030108439860FFF71AFF064641F280
:100A9000883707E0FFF714FF801BB84284BF0320AC
:100AA000BDE8F081A86861682B4600F00C00B0EB4F
:100AB000810FEFD1D3F8000400F00F00404507D9B3
:100AC00083F80084D3F8000400F00F00404523D1E0
:100AD0002068410705D59968E26821F4E051114387
:100AE0009960000706D59868216920F4604040EAC3
:100AF000C10098601C4600F033F8A168094AC1F3B0
:100B00000311515CC8401349086007480068FFF7AB
:100B1000FFFE0020BDE8F0810120BDE8F08100BFAC
:100B200000380240FC1900080800002009480A4962
:100B30000A4A00680968C1F38221515CC8407047C5
:100B400004480549054A00680968C1F34231515C0F
:100B5000C84070472C000020083802400C1A0008DA
:100B600010B5134C606800F00C00082804D004286D
:100B700014BF1048104810BD2268206800234002AE
:100B800002F03F020C485CBF42F20040C0F2F400A9
:100B90002168C1F38811A0FB0101FFF711FB216857
:100BA0000222C1F3014102EB4101B0FBF1F010BDA3
:100BB000043802400024F40040787D012DE9FC4116
:100BC000002800F0368104460078BB4EC00743D0B1
:100BD000B06800F00C00042805D1306880033BD5D4
:100BE0006068C8BB25E1B06800F00C00082802D19D
:100BF00070684002F1D46768B7F5803F06D030686E
:100C0000B7F5A02F12D140F480203060306840F456
:100C100080303060FFF754FE0546306880031BD4F7
:100C2000FFF74EFE401B6428F7D9ABE020F480307C
:100C30003060306820F480203060FFF741FE0546C8
:100C4000002FEAD13068800306D5FFF739FE411B3B
:100C500003206429F6D9EDE0207880072BD5B06811
:100C600010F00C0F07D0B06800F00C00082809D174
:100C70007068400206D43068800715D5E068012806
:100C800012D0D6E0E06800287ED08C4801210160B7
:100C9000FFF716FE05463068800705D4FFF710FE03
:100CA000401B0228F7D96DE03068216920F0F80078
:100CB00040EAC10030602078000720D561697F4894
:100CC00071B10121C0F8801EFFF7FAFD0546706F73
:100CD000800714D4FFF7F4FD401B0228F7D951E038
:100CE0000021C0F8801EFFF7EBFD0546706F8007FE
:100CF00005D5FFF7E5FD401B0228F7D942E0207833
:100D0000400771D5306C4FF00008C0000CD4CDF80E
:100D100004804FF00108306C40F080503064306C3B
:100D200000F0805001900198654F3868C0050FD4DD
:100D3000386840F480703860FFF7C2FD05463868B7
:100D4000C00505D4FFF7BCFD401B0228F7D919E008
:100D5000A768012F05D0306F052F26D140F0040081
:100D60003067306F40F001003067FFF7A9FD05469E
:100D700041F28837306F80072FD4FFF7A1FD401B69
:100D8000B842F7D9032055E04C4800210160FFF735
:100D900097FD0546306880077FF58DAFFFF790FD22
:100DA000411B03200229F5D944E020F001003067FF
:100DB000306F20F004003067FFF782FD0546002FFA
:100DC000D6D141F28837306F800706D5FFF778FD1E
:100DD000411B0320B942F6D92CE0B8F1000F1EBF29
:100DE000306C20F080503064A769002F62D0B0686A
:100DF00000F00C00082820D1012F1AD0B068E1695A
:100E000000F480028A4214D1216A00F03F028A4233
:100E10000FD147F6C071626A0140914209D1A16ABF
:100E200000F440328A4204D1E16A00F070608842E6
:100E300040D0012002B0BDE8F08120490020884662
:100E40000866FFF73DFD0546022F09D13068800195
:100E500010D5FFF735FD411B03200229F6D9E9E73C
:100E60003068800126D5FFF72BFD411B03200229A6
:100E7000F6D9DFE704F11C078FCF0843D90340EA16
:100E800082104FF6FF72914340EA0760A1F580316E
:100E9000084370600120C8F86000FFF711FD0446A8
:100EA0003068800106D4FFF70BFD011B03200229E7
:100EB000F6D9BFE70020BDE70038024000004742F6
:100EC0000070004070B5C8B3002605464FF0000C16
:100ED000866290F8510030B9284685F8506000F0DD
:100EE00031F8D5F828C0022185F8511029680A6820
:100EF00022F040020A60D5E90123D5E903041A4330
:100F000010436A6920431043AA6902F4007318432E
:100F1000EB6918432B6A184340EA0C000860042070
:100F200000EA12406A6A10434860C86920F4006011
:100F3000C86101206E6585F8510000E00126304649
:100F400070BD000010B586B0044601A81421FFF75B
:100F50006FF921681448814223D10021C24A00F56B
:100F600050400091536943F480535361536903F433
:100F700080530093009B0091136843F001031360BA
:100F8000126802F001020092009A02220292E0220C
:100F900001920391032104910521059101A9FFF715
:100FA000C7FB06B010BD00BF003001402DE9F8437B
:100FB000044690F85000012801D10220C7E001202A
:100FC0001E4615460F4684F85000FFF779FC94F84A
:100FD0005110814601296BD10120002F00F0B18012
:100FE000002D00F0AE80002E00F0AB8094F8510090
:100FF000DDF8208004281CBF052084F85100002063
:101000006065E687A563A6872763A686C4E9100006
:10101000E6862068016849065EBF016841F040012C
:1010200001606268711EE368B1FA81F1B2FA82F27E
:101030004909B3F5006F4FEA521241EA020145D166
:1010400031B137F8021BC1602763E08E0138E086BA
:10105000012608F10105E08E10B9E08F002879D053
:101060002068816889070CD5E18E012E09D141B134
:10107000216B002631F8022BC2602163E18E013919
:10108000E1868168C9070AD0E18F41B1C068A16BD0
:10109000012621F8020BA163E08F0138E087FFF7FA
:1010A0000FFC002DD7D0A0EB09004045D3D347E07B
:1010B0006068B0F5827F07D10220042941D1A16880
:1010C00000293FF489AF3CE002203AE039B1397899
:1010D0000173206B01302063E08E0138E086012629
:1010E00008F10105E08E08B9E08F98B320688168A7
:1010F00089070ED5E18E012E0BD151B1216B00264F
:1011000009780173216B206801312163E18E013977
:10111000E1868168C9070BD0E18F49B1C068A16B36
:1011200001260870A06B0130A063E08F0138E087D2
:10113000FFF7C6FB002DD5D0A0EB09004045D1D369
:101140000320002184F85010012184F8511001B0CF
:10115000BDE8F083204641464A4600F0ABF918B19D
:10116000202060650120ECE7A16800200029E8D17B
:1011700000902168CA680092896800910099E0E7B0
:10118000411E0020B0EB116F1CBF01207047044AC4
:10119000F023516003490B70072190601160704784
:1011A00010E000E023ED00E050B310B5044690F8E5
:1011B000390028B9002084F83800204600F022F8D1
:1011C000242084F839002068C16821F40051C160EE
:1011D000204600F033FA2068016921F49041016152
:1011E000416921F02A014161C16841F40051C160A7
:1011F00000202021E06384F8391084F83A1010BDF3
:101200000120704710B586B0044601A81421FFF7ED
:101210000FF82168A448814224D10021804A00F5BA
:10122000DE300091136943F480231361136903F4E2
:1012300080230093009B0091136843F00203136026
:10124000126802F002020092009A022202924FF407
:10125000406201920122CDE903210721059101A9F4
:10126000FFF766FA06B010BD303802402DE9F843AA
:10127000044690F83900202808D10E46012031B1EB
:10128000174622B194F83800012803D1022001B09A
:10129000BDE8F0834FF0000901201D46C4F83C90E2
:1012A00084F83800212084F83900FFF709FB8046D4
:1012B000A784E78484F838901DE0E08C80214246C2
:1012C0002B460138E0842046A76800F027FAB7F5DE
:1012D000805F0BD1C8B9318820686FF35F2141600E
:1012E0002069002814BF0136023604E068B920687E
:1012F00016F8011B4160E08C0028DED12046402119
:1013000042462B4600F00AFA08B10320BFE720202E
:1013100084F839000020BAE780B50A46014604A0E7
:1013200000F070FA0548BDE8804000F06BBA00BFDD
:1013300025732E7478743D2225732200300000201E
:10134000FEE700002DE9F04F87B04FF00009344868
:10135000344C00221027CDF81890CDF80490016885
:1013600004F5806641F001010160016801F00101AE
:1013700001910199CDF80490016841F004010160E8
:10138000016801F0040101910199CDF80490016810
:1013900041F002010160016801F00201019101992F
:1013A000CDF80490016841F020010160102100682F
:1013B00000F02000019001983046FFF77BFA04F519
:1013C00080554FF4A0410022A3464FF4A048284680
:1013D000FFF770FA01240220DFF84CA0CDE9027477
:1013E00002AF0494059030463946D0470F4839463D
:1013F000CDE9024058460494D04728463946CDE905
:101400000284CDE90499D047062000210022FFF78D
:10141000C9FA0620FFF7B8FA07B0BDE8F08F00BFA1
:10142000303802400004024031070008000021105B
:1014300080B50E480E4A4FF4827100234FF4007CB1
:10144000C0E900210A21C0E90233C0E90433C0E940
:1014500006C3C0E90833C0E90A31FFF733FD0028AD
:1014600014BFBDE8804080BDFFF739B9640000209B
:101470000030014080B5CF480B4A4FF4E1310023E2
:101480004FF00C0CC0E90021C0E90233C0E9043C74
:10149000C0E90633FFF788FE002814BFBDE880408E
:1014A00080BDFFF71CB900BF00480040FEE7704751
:1014B000704700001CB50446134813460A461349FA
:1014C0000068B0FBF1F04FF47A7110FB01F001906D
:1014D0006068B0F5827F0AD12046802100F018F8BC
:1014E00070B1606D40F020006065032009E0019854
:1014F00030B1019801380190206880680006F6D468
:10150000002002B010BD00BF2C00002000366E018C
:101510002DE9F041984616460F460446551C2068B2
:1015200080683840B8421CBF0020BDE8F081002D23
:10153000F5D0FFF7C5F9A0EB0800B042EFD3206863
:10154000416821F0E00141606168B1F5827F0AD114
:10155000A168B1F5004F02D0B1F5806F03D10168E9
:1015600021F040010160A16AB1F5005F07D1016877
:1015700021F400510160016841F400510160002034
:1015800084F85000012084F851000320BDE8F08168
:101590007047FFF799B9000070B592B006AC1421FE
:1015A000201DFEF745FE00251B4802260195016817
:1015B00041F080510160006800F080500190019876
:1015C00001951648016841F480410160006800F40B
:1015D00080400190019801200990102006960A9001
:1015E0000820CDE90C650E90A820CDE90F06042057
:1015F00011902046FFF7E2FA0F200521CDE9010600
:101600004FF4A050039504904FF48050059001A82A
:10161000FFF7F6F912B070BD40380240007000408C
:101620000548D0F8801041F47001C0F880104FF0E8
:1016300000610160704700BF08ED00E0F8B50746A3
:10164000006849F20C660169FA6821F440511143BF
:101650000161B968D7E90423FC69C568114325EA2B
:101660000606B4F5004F41EA030141EA040141EAEC
:101670000601C1604169BA6921F4407141EA020181
:101680004161254940F4806004D1884207D1FFF7C9
:1016900057FA06E088421FD1FFF752FA1EE0FFF723
:1016A00045FA7B681921A0FB01015A00DB0FFEF708
:1016B00087FD64216FF06303B0FBF1F202FB0300CE
:1016C000322303EBC000B0FBF1F14FF4F87000EAF5
:1016D000410001F0070119E0FFF728FA7B681921A2
:1016E000A0FB01019A009B0FFEF76AFD64216FF0D9
:1016F0006303B0FBF1F202FB0300322303EB0010A3
:10170000B0FBF1F101F0F00001F00F0100EB02106D
:10171000084339688860F8BD001401402DE9F041A4
:101720001D4690460F4604465E1C206801683940FD
:10173000B94204BF0020BDE8F081002EF5D035B1DC
:10174000FFF7BEF8A0EB0800A842EED92068C168F8
:1017500021F4D071C160416921F001014161202073
:10176000002184F8390084F8381084F83A00032006
:10177000BDE8F081FEE7000010B5074C00F00F0354
:10178000044AB0F1FF3F2344C8BF83180801187012
:1017900010BD00BF00E400E014ED00E0E0B50190F2
:1017A000044801A901224FF6FF73FFF75FFD01987E
:1017B00002B080BDBC000020FFF790F8FFF7ECFE00
:1017C000FFF7C0FDFFF734FEFFF754FEFEF7BAFD4A
:1017D000FEF780FD09480279C178437990F806C088
:1017E000120242EA0141064A1944C379007A1B02F7
:1017F00043EA0C431844C2E90010FEE73B00002016
:101800005C0000200FB4054B10B503A9044A0298F0
:1018100000F018F810BC5DF814FB00009D170008DC
:101820000000002002E008C8121F08C1002AFAD1F7
:1018300070477047002001E001C1121F002AFBD150
:10184000704700002DE9FF4F8BB09A460F460546C2
:10185000002606E025280BD052460D9990476D1CB6
:10186000761C28780028F5D10FB03046BDE8F08FFF
:101870000024A0460122604900E0044315F8013F1E
:10188000203B02FA03F00842F7D128782E2817D11E
:1018900015F8010F44F004042A280ED06FF02F022F
:1018A0002878A0F1300109290AD808EB880102EB59
:1018B000410100EB01086D1CF2E757F8048B6D1C29
:1018C000287869283ED006DC0028CDD063280BD0CC
:1018D000642804D136E0732810D075284BD05246C6
:1018E0000D999047761C85E017F8040B8DF80000E1
:1018F00000208DF80100E946012003E057F8049B21
:101900004FF0FF3061074FF0000401D40AE0641C7F
:1019100044450DDA8442FADB19F804100029F6D1A7
:1019200006E0641C8442FCDB19F804100029F8D19D
:10193000264404E019F8010B52460D999047641EA5
:10194000F8D257E001CF4FF00A0B002802DA4042EC
:101950002D2102E0210504D52B218DF82410012131
:1019600003E0E10705D02021F7E70DF120090891F8
:101970000CE00021F9E701CF4FF00A0BF9E75946D7
:10198000FEF761FC01F1300209F8012D0028F6D1C3
:10199000ADEB090000F1200B600701D44FF0010806
:1019A000D84502DDA8EB0B0000E0002080460024B3
:1019B00006E009A85246005D0D999047641C761C0C
:1019C00008988442F5DB04E0302052460D99904798
:1019D000761CB8F10001A8F10108F5DC05E019F862
:1019E000010B52460D999047761CBBF10001ABF1FB
:1019F000010BF4DC6D1C34E7092801000000000035
:101A000000000000010203040607080900000000AE
:101A100001020304381A000800000020380000000A
:101A200024180008701A000838000020C8040000BC
:101A30003418000800000000000000000100000051
:101A4000100000000200020000000101010A000174
:101A50000100000000010001010000000001010080
:101A6000000000000024F400FFFFFF000000000061
:040000050800018965
:00000001FF
